:020000040800F2
:10000000A8060020B5010008BD010008BF010008D6
:10001000C1010008C3010008C5010008000000007C
:10002000000000000000000000000000C701000800
:10003000C901000800000000CB010008CD01000844
:10004000CF010008CF010008CF010008CF01000850
:10005000CF010008CF010008CF010008CF01000840
:10006000CF010008CF010008CF010008CF01000830
:10007000CF010008CF010008CF010008CF01000820
:10008000CF010008CF010008CF010008CF01000810
:10009000CF010008CF010008CF010008CF01000800
:1000A000CF010008CF010008CF010008CF010008F0
:1000B000CF010008CF010008CF010008CF010008E0
:1000C000CF010008CF010008CF010008CF010008D0
:1000D000CF010008CF010008CF010008CF010008C0
:1000E000CF010008CF010008CF01000800F002F89E
:1000F00000F050F814A696E8000CB244B344DA4578
:1001000001D100F047F8BAE80F000FA696E83000DA
:10011000A5EB040504EB0607AAEB0704A7F101070A
:100120004FEA15154FEA3414A4F10104AC4201D38F
:1001300000F030F813F0010F18BFFB1A43F0010371
:1001400000F001F8DBE71847840C0000A40C000065
:10015000103A24BF78C878C1FAD8520724BF30C8F3
:1001600030C144BF04680C60704700007047000055
:100170000023002400250026103A28BF78C1FBD8B0
:10018000520728BF30C148BF0B6070471FB51FBD65
:1001900010B510BD00F031F81146FFF7F7FF00F081
:1001A00079FD00F04FF803B4FFF7F2FF03BC00F055
:1001B00057F800000948804709480047FEE7FEE776
:1001C000FEE7FEE7FEE7FEE7FEE7FEE7FEE7FEE707
:1001D00004480549054A064B70470000550B0008C6
:1001E000ED000008A8000020A8060020A8020020BA
:1001F000A8020020704770477047754600F02CF841
:10020000AE4605006946534620F00700854618B003
:1002100020B5FFF7DDFFBDE820404FF000064FF0AE
:1002200000074FF000084FF0000BAC46ACE8C009E7
:10023000ACE8C009ACE8C009ACE8C00921F007018E
:100240008D46704710B50446AFF300802046BDE8E8
:100250001040FFF7A8BF00000048704708000020CA
:1002600001491820ABBEFEE72600020070470000DF
:1002700083B08DF80B008DF80A1041F21801C4F21A
:100280000201086840F4017008609DF80B0007281F
:1002900012DCFFE740F60001C4F20101086801909A
:1002A0009DF80B0082000F2000FA02F201989043A3
:1002B0000190019808601AE09DF80B00092815DCF0
:1002C000FFE740F60041C4F20101086801909DF883
:1002D0000B206FF01F0000EB82020F2000FA02F2E9
:1002E00001989043019001980860FFE7FFE742F210
:1002F0000841C4F20101086840F0010008604FF4B1
:10030000FA700090FFE70098411E009108B1FFE7E6
:10031000F9E742F20841C4F20101086840F0080020
:100320000860FFE742F20840C4F2010000680007DD
:10033000002801D5FFE7F5E742F20841C4F20101C8
:10034000086840F004000860FFE742F20840C4F289
:10035000010000684007002801D5FFE7F5E79DF898
:100360000B00092820DCFFE742F21041C4F2010132
:10037000086801909DF80B0000EB4002072000FA8E
:1003800002F20198904301909DF80A0000F00700E6
:100390009DF80B2002EB420200FA02F20198104392
:1003A00001900198086022E042F20C41C4F2010180
:1003B000086801909DF80B0000EB4000A0F11E02C0
:1003C000072000FA02F20198904301909DF80A007C
:1003D00000F007009DF80B2002EB42021E3A00FAE3
:1003E00002F201981043019001980860FFE742F281
:1003F0000841C4F20101086840F602029043086017
:1004000042F22C41C4F20101086820F47000086037
:1004100003B0704782B08DF8070042F23441C4F255
:10042000010108680090009820F01F0000909DF8DE
:10043000070000F01F020098104300900098086029
:1004400042F20841C4F20101086840F480000860EB
:10045000FFE742F20040C4F2010000688007002874
:1004600001D4FFE7F5E742F24C40C4F20100006816
:100470006FF31F3002B0704780B58CB08DF82F003D
:100480008DF82E100A928DF827309DF82F0000F07D
:10049000ABFB08909DF82F009DF82E1000F04EFC4D
:1004A0008DF81F009DF81F1040F66C50C0F600003C
:1004B00050F8311006919DF81F1000EBC100406804
:1004C00005909DF82F008DF81300089808B9FFE7F4
:1004D00048E10A9818B9FFE701200A90FFE79DF864
:1004E0002700652804DBFFE764208DF82700FFE77D
:1004F0009DF82F00022809D1FFE741F21C01C4F248
:100500000201086840F0010008601DE09DF82F001E
:10051000032809D1FFE741F21C01C4F20201086877
:1005200040F0020008600EE09DF82F00042809D179
:10053000FFE741F21C01C4F20201086840F0040028
:100540000860FFE7FFE7FFE7069840F60001C4F206
:100550000101884209D1FFE741F21801C4F202010A
:10056000086840F00400086023E0069840F6004167
:10057000C4F20101884209D1FFE741F21801C4F237
:100580000201086840F00800086011E0069841F296
:100590000001C4F20101884209D1FFE741F21801CC
:1005A000C4F20201086840F010000860FFE7FFE7AE
:1005B000FFE70698059900F03FFB0899088820F0AE
:1005C000010008809DF81300020140F26801C2F2A8
:1005D0000001472088500A9A44F24020C0F20F00E0
:1005E000B0FBF2F001389DF8132001EB02114860D6
:1005F0009DF82F0002281AD0FFE79DF8131040F253
:100600006800C2F2000000EB01104068B0F5803FC6
:100610000CD3FFE79DF8131040F26800C2F200000F
:1006200000EB01114FF6FF704860FFE7FFE79DF810
:100630001300010140F26800C2F200004158089A1C
:1006400011859DF8131000EB01104068089988850A
:100650000899088840F0800008800899888A40F04E
:10066000010088829DF82E000390039802281DD86F
:10067000FFE70898008B02900398012809D1FFE753
:10068000029820F0FF000290029840F0680002906B
:1006900008E0029820F47F400290029840F4D04095
:1006A0000290FFE70298089908831CE00898808B65
:1006B00001900398032809D1FFE7019820F0FF007B
:1006C0000190019840F06800019008E0019820F442
:1006D0007F400190019840F4D0400190FFE70198DD
:1006E00008998883FFE703996FF0030000EB81020C
:1006F0000F2101FA02F3089A118C9943118403998E
:1007000000EB8101012000FA01F20899088C1043E6
:1007100008849DF8130040F26801C2F2000101EB69
:10072000001040689DF82720504348F21F52C5F240
:10073000EB12A0FB02204009009000989DF81320C6
:1007400001EB0211039A01EB4201C880009808995D
:10075000039A01EB420148860899088840F001009D
:100760000880FFE70CB080BD80B586B08DF817001B
:100770008DF816108DF815209DF8170000F034FA4A
:1007800004909DF817008DF80F00049808B9FFE752
:1007900033E09DF81500652804DBFFE764208DF841
:1007A0001500FFE79DF80F0040F26801C2F200015A
:1007B00001EB001040689DF81520504348F21F528D
:1007C000C5F2EB12A0FB0220400902909DF8160032
:1007D00001388DF8070002989DF80F2001EB0211F7
:1007E0009DF8072001EB42010881029804999DF8C9
:1007F000072001EB42018886FFE706B080BD0000BC
:1008000080B588B08DF81F0006919DF81F0000F09C
:10081000EBF905909DF81F008DF81300059818B1AD
:10082000FFE7069808B9FFE769E0069944F240201F
:10083000C0F20F00B0FBF1F0013803909DF81F00EB
:10084000022809D0FFE70398B0F5803F04D3FFE703
:100850004FF6FF700390FFE79DF8130040F2680128
:10086000C2F2000101EB00104068029003989DF86D
:10087000132001EB021148600398059988850599BA
:10088000888A40F00100888200200190FFE70198EB
:10089000032834DCFFE79DF8131040F26800C2F231
:1008A000000000EB0110019900EB41000089039961
:1008B0000131484302990131B0FBF1F000900098FA
:1008C0000399884203D9FFE703980090FFE7009857
:1008D0009DF8132040F26801C2F2000101EB021101
:1008E000019A01EB4201088100980599019A01EBF8
:1008F00042018886FFE7019801300190C7E708B000
:1009000080BD000080B500F001F880BD84B00020FB
:100910000390029041F20001C4F20201086840F421
:1009200080300860FFE741F20000C4F20200006876
:1009300000F400300290039801300390FFE7029921
:100940000020019039B9FFE70398B0F5A06018BF07
:1009500001200190FFE70198C0070028E3D1FFE7DD
:1009600041F20000C4F2020000688003002803D5B1
:10097000FFE70120029002E000200290FFE70298CA
:10098000012851D1FFE742F20001C4F202010868D8
:1009900040F010000860086820F007000860086850
:1009A00040F00200086041F20401C4F2020100912B
:1009B0000868086008680860086840F4806008609B
:1009C000086820F47C100860086840F4E8100860AB
:1009D00041F20001C4F20201086840F08070086032
:1009E000FFE741F20000C4F2020000688001002825
:1009F00001D4FFE7F5E741F20401C4F202010868FF
:100A000020F003000860086840F002000860FFE77B
:100A100041F20400C4F20200006800F00C00082853
:100A200001D0FFE7F4E700E0FFE704B07047000003
:100A300084B0002003900290019041F20400C4F2BF
:100A40000200006800F00C0003900398009040B191
:100A5000FFE7009804280ED0FFE70098082814D07C
:100A600056E040F20001C2F2000141F20020C0F263
:100A70007A00086056E040F20001C2F2000141F243
:100A80000020C0F27A0008604CE041F20400C4F299
:100A90000200016801F470110291006800F48030D6
:100AA00001900299022000EB91400290019860B9F8
:100AB000FFE7029840F60011C0F23D01484340F2C2
:100AC0000001C2F20001086021E041F20400C4F21A
:100AD00002000068800300280CD5FFE7029840F66A
:100AE0000011C0F23D01484340F20001C2F2000192
:100AF00008600BE0029841F20021C0F27A014843FD
:100B000040F20001C2F200010860FFE7FFE709E0E0
:100B100040F20001C2F2000141F20020C0F27A006E
:100B20000860FFE741F20400C4F202000068C0B2AE
:100B3000010940F65A50C0F60000405C0390039A49
:100B400040F20001C2F200010868D040086004B021
:100B50007047000080B541F20002C4F20202106842
:100B600040F00100106041F20401C4F20201086883
:100B70000023CFF6FF031840086010684FF6FF739C
:100B8000CFF6F66318401060106820F480201060E3
:100B9000086820F4FE00086041F20801C4F2020176
:100BA0004FF41F000860FFF7ADFE4EF60851CEF27D
:100BB00000014FF00060086080BD000082B001902D
:100BC000FFE70198411E019158B1FFE742F6E0604E
:100BD0000090FFE70098411E009108B1FFE7F9E798
:100BE000EFE702B07047000083B08DF807009DF872
:100BF000070001460091022808D0FFE7009803286B
:100C000008D0FFE7009804280AD00FE04FF080409A
:100C100002900EE040F20040C4F20000029008E0B2
:100C200040F60000C4F20000029002E000200290B2
:100C3000FFE7029803B0704785B0049003910398D2
:100C4000072806D8FFE704980290039880000190D7
:100C500009E004980430029003996FF01F0000EB44
:100C600081000190FFE702980068009001990F2031
:100C700000FA01F100988843009001990B2000FAD6
:100C800001F100980843009000980299086005B0AF
:100C90007047000080B588B0002003900790FFF7F0
:100CA000C7FE039807210191FFF7E2FA019901209D
:100CB0000290FFF7DDFA0299039B03204FF47A724A
:100CC000FFF7DAFBFFE70020FFF7A4FBADF81A00FF
:100CD000BDF81A0064214843000B8DF8190001206B
:100CE000FFF798FBADF81600BDF8160044F6EE517C
:100CF0004143322000EB113004900498312803D88E
:100D0000FFE732200490FFE7049844F6216188420F
:100D100004D3FFE744F620600490FFE70499032022
:100D20000090FFF76DFD00989DF819200121FFF755
:100D30001BFD0A20FFF742FFC5E7000081B08DF8D8
:100D400003008DF802109DF803109DF8020000EBDF
:100D500081000938C0B201B07047000000000000F7
:100D60000000010203040607080900000008014012
:100D700000000000000801400100000000080140E0
:100D800002000000000801400300000000080140CC
:100D9000060000000008014007000000000C0140B0
:100DA00000000000000C014001000000000C0140A8
:100DB00006000000000C014007000000000C01408C
:100DC00008000000000C014009000000F00D0008C0
:100DD000000000200800000050010008F80D000885
:100DE00008000020A00600007001000800000000BC
:080DF00000A24A04000000000B
:04000005080000ED02
:00000001FF
